S01300006E74695F50524F4A4543542E7372656350
S11300000C942A000C9449000C9472000C949B00EC
S11300100C9447000C9491060C942D060C94DB056B
S11300200C9404060C94B2050C9447000C940B0534
S11300300C9447000C94C6060C9447000C94EF06ED
S11300400C9447000C9447000C9447000C94470010
S11300500C94470011241FBECFE5D8E0DEBFCDBF0E
S113006010E0A0E6B0E0E8EDFEE002C005900D92DD
S1130070A23FB107D9F721E0A2EFB0E001C01D9281
S1130080A830B207E1F70E944C020C946A070C9462
S113009000001F920F920FB60F9211242F933F93DB
S11300A04F935F936F937F938F939F93AF93BF937C
S11300B0EF93FF93E091F600F091F700309709F089
S11300C00995FF91EF91BF91AF919F918F917F918E
S11300D06F915F914F913F912F910F900FBE0F90B1
S11300E01F9018951F920F920FB60F9211242F9301
S11300F03F934F935F936F937F938F939F93AF93AC
S1130100BF93EF93FF93E091F400F091F5003097E3
S113011009F00995FF91EF91BF91AF919F918F9154
S11301207F916F915F914F913F912F910F900FBEEF
S11301300F901F9018951F920F920FB60F921124D3
S11301402F933F934F935F936F937F938F939F93DB
S1130150AF93BF93EF93FF93E091F200F091F3001C
S1130160309709F00995FF91EF91BF91AF919F915D
S11301708F917F916F915F914F913F912F910F904C
S11301800FBE0F901F901895CF93C82F61E081E1A7
S11301900E943C04C4FB662760F984E10E943C048D
S11301A0C5FB662760F985E10E943C04C6FB66270F
S11301B060F986E10E943C046C2F661F6627661F67
S11301C087E10E943C0461E082E10E943C048FECE0
S11301D097E00197F1F700C0000060E082E10E941F
S11301E03C048FEC97E00197F1F700C0000061E058
S11301F081E10E943C046C2F617084E10E943C0404
S1130200C1FB662760F985E10E943C04C2FB6627B6
S113021060F986E10E943C04C3FB662760F987E12C
S11302200E943C0461E082E10E943C048FEC97E070
S11302300197F1F700C0000060E082E10E943C04F5
S11302408FEC97E00197F1F700C00000CF9108957B
S1130250CF93C82F60E081E10E943C04C4FB662771
S113026060F984E10E943C04C5FB662760F985E1DE
S11302700E943C04C6FB662760F986E10E943C04A8
S11302806C2F661F6627661F87E10E943C0461E0AD
S113029082E10E943C048FEC97E00197F1F700C0E3
S11302A0000060E082E10E943C048FEC97E001973B
S11302B0F1F700C0000060E081E10E943C046C2F73
S11302C0617084E10E943C04C1FB662760F985E10A
S11302D00E943C04C2FB662760F986E10E943C044C
S11302E0C3FB662760F987E10E943C0461E082E178
S11302F00E943C048FEC97E00197F1F700C00000E6
S113030060E082E10E943C048FEC97E00197F1F7F2
S113031000C00000CF9108952FE788E391E02150B9
S113032080409040E1F700C0000082E00E94280174
S11303308FEC97E00197F1F700C0000088E20E947B
S113034028018FEC97E00197F1F700C000008CE0E2
S11303500E9428018FEC97E00197F1F700C000009C
S113036081E00E9428018FE99FE00197F1F700C026
S1130370000086E00E9428018FEC97E00197F1F7D6
S113038000C00000089581E00C9428010F931F938E
S1130390CF938C01C0E0F801EC0FF11D808188231C
S11303A021F00E94C400CF5FF6CFCF911F910F912F
S11303B00895811102C080E803C0813021F480ECEB
S11303C0860F0C94280108958F929F92AF92BF924A
S11303D0CF92DF92EF92FF920F931F93CF93DF930D
S11303E07C016B01D9011C9290E0842E912C292F61
S11303F0092E000C330B281539050CF03FC086017B
S1130400D7E09D02000D111D112451E020E0E22FE0
S1130410022E000CFF0B5701AE0EBF1EE501388102
S1130420311108C0B8016E0F7F1FEB018881811163
S113043015C01EC0513001F580ED830F8A3080F461
S11304407C91770F872F880F880F780F7053370FA1
S11304503C93E5018981811109C00CC0513061F4DC
S1130460E00FF11F51E08081831350E02F5FCFCF65
S1130470513011F4892F03C09F5FB9CF8EEFDF9104
S1130480CF911F910F91FF90EF90DF90CF90BF908D
S1130490AF909F908F900895CF93DF93CDB7DEB741
S11304A0E0970FB6F894DEBF0FBECDBF78940E94DC
S11304B0BD040E948C010E94BC068CE1EAE6F0E0D7
S11304C0DE01119601900D928A95E1F701E010E0AA
S11304D05FE1C52E5EE4D52E67EEA62E63E0B62E50
S11304E074EB472E512C612C712CE12CFF24F394D6
S11304F0CE014D960E94180762E080E00E94D90167
S1130500CE014D960E94C60129E630E044E0BE01CA
S11305106F5F7F4FCE014D960E94E401813001F15F
S113052030F0823009F485C08330A1F1B5C09091D8
S113053069008CEF890F843050F42BB3A80102C0FA
S1130540440F551F9A95E2F7CA01822B18C00E94E6
S1130550C30161E081E00E94D90186E890E0A4C073
S1130560809169009CEF980F943058F49BB39801E4
S113057001C0220F8A95EAF7822F809589238BBBCD
S1130580B7CF0E94C30161E081E00E94D90185E9EF
S113059090E08AC080916900833008F041C062E035
S11305A083E00E94D00482E00E94F00480916900FC
S11305B090E0FC01EE0FFF1F8E0F9F1FFC01E05A1D
S11305C0FF4F80818CBF62E083E00E94360582E0A9
S11305D00E949705F7BCE6BC8091690090E0FC019D
S11305E0EE0FFF1F8E0F9F1FFC01E05AFF4F81810A
S11305F090E099BD88BD62E083E00E94560682E0E7
S11306000E9476068091690090E0FC01EE0FFF1FC6
S11306108E0F9F1FFC01E05AFF4F828183BD68CF7C
S11306200E94C30161E081E00E94D90185EA90E063
S11306303BC080916900853B30F562E083E00E9415
S1130640360582E00E947C05D7BCC6BCBBBCAABCF4
S11306502091690030E0A7EEB3E00E945B07A3019C
S113066092010E94390729513C4F3BBD2ABD5FEFDF
S113067080E792E0515080409040E1F700C00000D4
S1130680F7BCE6BC35CF0E94C30161E081E00E9463
S1130690D90183EB90E008C00E94C30161E081E0CE
S11306A00E94D90183EC90E00E94C60121CF982FCB
S11306B09770869586958695613009F441C020F03F
S11306C0623009F489C00895813099F028F08230AD
S11306D0E9F0833041F108954AB321E030E0B901F3
S11306E002C0660F771F9A95E2F7CB01842B8ABB71
S11306F0089547B321E030E0B90102C0660F771FC7
S11307009A95E2F7CB01842B87BB089544B321E08B
S113071030E0B90102C0660F771F9A95E2F7CB016A
S1130720842B84BB089541B321E030E0B90102C0B9
S1130730660F771F9A95E2F7CB01842B81BB08954E
S11307408130B9F028F0823029F18330A1F1089585
S11307504AB321E030E0B90102C0660F771F9A95D1
S1130760E2F7CB018095942F98239ABB9BB38923FE
S11307704BC047B321E030E0B90102C0660F771FD8
S11307809A95E2F7CB018095942F982397BB98B361
S113079089234CC044B321E030E0B90102C0660FA4
S11307A0771F9A95E2F7CB018095942F982394BBF9
S11307B095B389234DC041B321E030E0B90102C0B3
S11307C0660F771F9A95E2F7CB018095942F9823B3
S11307D091BB92B389234EC08130C1F028F082309E
S11307E039F18330B9F108954AB321E030E0B90119
S11307F002C0660F771F9A95E2F7CB01962F90956A
S113080094239ABB9BB3892B8BBB089547B321E0F8
S113081030E0B90102C0660F771F9A95E2F7CB0169
S1130820962F9095942397BB98B3892B88BB0895F2
S113083044B321E030E0B90102C0660F771F9A95F6
S1130840E2F7CB01962F9095942394BB95B3892B13
S113085085BB089541B321E030E0B90102C0660FC1
S1130860771F9A95E2F7CB01962F9095942391BB2D
S113087092B3892B82BB0895982F9770869586959D
S113088086956130C1F5813091F028F08230D9F03D
S1130890833029F108954BB321E030E0B90102C05F
S11308A0660F771F9A95E2F7CB01842B3AC048B3C1
S11308B021E030E0B90102C0660F771F9A95E2F794
S11308C0CB01842B3CC045B321E030E0B90102C028
S11308D0660F771F9A95E2F7CB01842B3EC042B393
S11308E021E030E0B90102C0660F771F9A95E2F764
S11308F0CB01842B40C061113FC08130A1F028F0AE
S11309008230F9F0833059F108954BB321E030E09F
S1130910B90102C0660F771F9A95E2F7CB01809563
S113092084238BBB089548B321E030E0B90102C0B1
S1130930660F771F9A95E2F7CB018095842388BBD5
S1130940089545B321E030E0B90102C0660F771F76
S11309509A95E2F7CB018095842385BB089542B331
S113096021E030E0B90102C0660F771F9A95E2F7E3
S1130970CB018095842382BB08950F931F93CF935B
S113098002ED10E0C0E0F80161918F018C2F0E940C
S11309905703CF5FC032B9F7CF911F910F910895DC
S11309A0813059F038F0823071F0833091F483B79C
S11309B080640BC083B78F7B02C083B7806483BF1E
S11309C083B7877F05C083B78F7B83BF83B7886076
S11309D083BF83B7887F83BF83B7682B63BF0895C2
S11309E0813049F028F0823061F0833069F0089555
S11309F083B78F7E02C083B7806183BF83B78F7D47
S1130A0008C083B78F7E02C083B7806183BF83B77A
S1130A10806283BF08951F920F920FB60F92112424
S1130A202F933F934F935F936F937F938F939F93F2
S1130A30AF93BF93EF93FF938CE982BFE0910201E0
S1130A40F0910301309709F00995FF91EF91BF915F
S1130A50AF919F918F917F916F915F914F913F9152
S1130A602F910F900FBE0F901F901895823011F1A7
S1130A7050F48823B1F08130C1F58FB58E7F8FBDDE
S1130A808FB58D7F2BC0843021F100F1853069F55D
S1130A908FB58E7F8FBD8FB582608FBD8EB5877FFA
S1130AA020C08FB58E7F8FBD8FB58D7F8FBD8EB5E6
S1130AB0877F08C08FB58E7F8FBD8FB58D7F8FBD2B
S1130AC08EB588608EBD8EB58F7E0EC08FB58E7F3D
S1130AD002C08FB581608FBD8FB582608FBD8EB52A
S1130AE088608EBD8EB580618EBD8EB5887F8EBDCB
S1130AF08EB5682B6EBD0895813049F028F08230A0
S1130B0061F0833069F008958FB58F7B02C08FB593
S1130B1080648FBD8FB58F7708C08FB58F7B02C07F
S1130B208FB580648FBD8FB580688FBD0895813087
S1130B3049F028F0823061F0833069F008958FB570
S1130B408F7E02C08FB580618FBD8FB58F7D08C049
S1130B508FB58F7E02C08FB580618FBD8FB58062E7
S1130B608FBD08951F920F920FB60F9211242F93E9
S1130B703F934F935F936F937F938F939F93AF9321
S1130B80BF93EF93FF93E0910001F091010130973F
S1130B9009F00995FF91EF91BF91AF919F918F91CA
S1130BA07F916F915F914F913F912F910F900FBE65
S1130BB00F901F9018951F920F920FB60F92112449
S1130BC02F933F934F935F936F937F938F939F9351
S1130BD0AF93BF93EF93FF93E091FE00F091FF007A
S1130BE0309709F00995FF91EF91BF91AF919F91D3
S1130BF08F917F916F915F914F913F912F910F90C2
S1130C000FBE0F901F9018951F920F920FB60F9260
S1130C1011242F933F934F935F936F937F938F93FD
S1130C209F93AF93BF93EF93FF93E091FC00F091F8
S1130C30FD00309709F00995FF91EF91BF91AF91B5
S1130C409F918F917F916F915F914F913F912F91E0
S1130C500F900FBE0F901F9018951F920F920FB612
S1130C600F9211242F933F934F935F936F937F932E
S1130C708F939F93AF93BF93EF93FF93E091FA0009
S1130C80F091FB00309709F00995FF91EF91BF9126
S1130C90AF919F918F917F916F915F914F913F9110
S1130CA02F910F900FBE0F901F901895813059F01F
S1130CB038F0823071F0833091F485B580640BC0D4
S1130CC085B58F7B02C085B5806485BD85B5877F7A
S1130CD005C085B58F7B85BD85B5886085BD85B527
S1130CE0887F85BD85B5682B65BD0895813049F041
S1130CF028F0823061F0833069F0089585B58F7EE5
S1130D0002C085B5806185BD85B58F7D08C085B578
S1130D108F7E02C085B5806185BD85B5806285BD45
S1130D2008951F920F920FB60F9211242F933F93A1
S1130D304F935F936F937F938F939F93AF93BF93DF
S1130D40EF93FF938CE982BFE091F800F091F900F2
S1130D50309709F00995FF91EF91BF91AF919F9161
S1130D608F917F916F915F914F913F912F910F9050
S1130D700FBE0F901F901895599883E389B9549A20
S1130D80539A08955F9BFECF8CB108951F920F92E2
S1130D900FB60F9211242F933F934F935F936F934A
S1130DA07F938F939F93AF93BF93EF93FF93E091C0
S1130DB00401F0910501309709F00995FF91EF9135
S1130DC0BF91AF919F918F917F916F915F914F915F
S1130DD03F912F910F900FBE0F901F9018951F9267
S1130DE00F920FB60F9211242F933F934F935F935B
S1130DF06F937F938F939F93AF93BF93EF93FF93DF
S1130E00E0910601F0910701309709F00995FF91EF
S1130E10EF91BF91AF919F918F917F916F915F916E
S1130E204F913F912F910F900FBE0F901F901895E7
S1130E30EF92FF920F931F93CF938C010E94C206EF
S1130E40F8018083C0E0F801EC0FF11D808183324A
S1130E5049F0CF5F7801EC0EF11C0E94C206F70145
S1130E608083F1CF1082CF911F910F91FF90EF906B
S1130E700895A1E21A2EAA1BBB1BFD010DC0AA1FD7
S1130E80BB1FEE1FFF1FA217B307E407F50720F0EF
S1130E90A21BB30BE40BF50B661F771F881F991F6A
S1130EA01A9469F760957095809590959B01AC01B3
S1130EB0BD01CF010895A29FB001B39FC001A39FBC
S1130EC0700D811D1124911DB29F700D811D11247F
S10B0ED0911D0895F894FFCF71
S1130ED8FEFE0101FEFEFEFEFE0A6C65646F6E00F6
S1130EE8006C65646F666600736572766F000063F4
S1130EF86F6C6F720000496E76616C6964206C6572
S1130F0864206F6E00696E76616C6964206C656438
S1130F18206F666600696E76616C696420636F6C25
S1130F286F7200496E7620536572766F20416E6742
S1130F386C6500496E76616C696420737472696EBD
S1130F48670001010101000000000000000000002A
S1130F580000000000000000000001000202000080
S1050F68020081
S9030000FC
